:020000040801F1
:100000000000022095ED0108017301080573010845
:10001000097301080D7301081173010891ED0108BE
:1000200091ED010891ED010891ED0108618501084C
:1000300091ED010891ED010885850108516B0108DA
:1000400091ED010891ED010891ED010891ED010894
:1000500091ED010891ED0108A9660108AF6601085C
:10006000B5660108BB660108C1660108356501086F
:100070004565010855650108656501087565010854
:10008000856501089565010891ED010891ED01086C
:1000900091ED010891ED010891ED0108C766010895
:1000A000E16E0108ED6E0108F96E0108056F0108A7
:1000B000116F01081D6F0108296F0108B56901085A
:1000C000CD690108C1690108D969010891ED0108EC
:1000D00091ED010899710108A5710108B17101083C
:1000E000CF66010891ED010891ED0108596F0108F3
:1000F000656F0108716F01087D6F0108A565010832
:1001000091ED010891ED0108356F010891ED0108AD
:10011000BD710108C9710108416F01084D6F0108E7
:10012000B5650108C5650108D5650108E5650108E3
:10013000F565010891ED010891ED010891ED0108C7
:1001400091ED010891ED010891ED0108498901083F
:1001500005660108156601082566010891ED01088C
:1001600091ED010891ED010891ED010891ED010873
:1001700091ED010891ED010891ED010891ED010863
:1001800091ED010891ED01080C4BDA68D1030ED412
:10019000D868C2060DD4D96811F0EF0F0BD1DA6818
:1001A00002F00203002B0CBF05200C207047012039
:1001B0007047032070470B20704700BF003C02408F
:1001C00013B50446FFF7E0FF0CE000230193FF2383
:1001D00001E00198431E019301990029F9D1FFF72D
:1001E000D3FF013C012803D1002CEED1062002E010
:1001F000002C08BF06201CBD70B5044641B1012982
:1002000008D0022914BF4FF440764FF4007603E083
:100210000E4601E04FF4807640F6FF70FFF7D0FF06
:10022000052820D1104D286920F440732B612A69DC
:1002300016432E61296921F0F80028612B6943F0EB
:10024000020214432C61296941F48030286140F690
:10025000FF70FFF7B5FF2B6923F002022A612969BD
:1002600021F0F8032B6170BD003C024000F178439F
:10027000B3F5803F05DA002BBCBF074BC3189B13B7
:1002800006E0B3F5003F02DB5B14043300E0042317
:10029000D8000321FFF7B0BFFF3F00F8134B00F178
:1002A00078429A4270B504460E461CD81F20FFF7CC
:1002B00087FF052818D10E4D296921F44070286167
:1002C0002B6943F480722A61296941F00100286199
:1002D0001F202680FFF774FF062805D02B6923F026
:1002E00001022A6170BD072070BD00BFFEFF07003C
:1002F000003C0240044B1A69002A03DA034904480F
:1003000059605860704700BF003C024023016745B8
:10031000AB89EFCD014B9868704700BF10E000E05B
:10032000014B1868704700BFDC30002038B5FFF77C
:10033000F7FF0446FFF7EEFF054600BF00BFFFF7DB
:10034000EFFF8442F3D109480368DB0303D5FFF7CD
:10035000E1FF01340546C5F524354035A822B5FB3B
:10036000F2F54FF47A7101FB045038BD10E000E063
:10037000014B00221A7070470C27002034300139DD
:1003800040F82120704707F0EBB97047254A264B0B
:10039000106040F2DC514FF47A7219605960996034
:1003A000DA601A615A619A61DA611A625A6200234C
:1003B00007E001211D4A03EB010C42F823105FFA0C
:1003C0008CF38342F5DB1A4B40F2DC511960596023
:1003D0009960002308E0174A02EB83014FF07E5C2E
:1003E0005A1CC1F800C0D3B28342F4DB002308E0FA
:1003F000114A02EB83014FF07E5C0133C1F800C06B
:10040000DBB28342F4DB002308E00C4A02EB8301F9
:100410004FF07E5C0133C1F800C0DBB28342F4DBF5
:10042000704700BF5027002008290020A42B00207F
:10043000CC2B00207C270020002C0020842C0020C6
:100440000849094B51F8202053F82010531A00EEA8
:10045000103ADFED067AB8EEC07A67EE276A16EE3C
:10046000900A704708290020CC2B00200BD7A33B13
:1004700003460020F0B5044605E00A20013500FBE4
:1004800004741D6001201D682E78A6F130075FFA04
:1004900087FCBCF1090FF0D92E2E14D16E1C1E6002
:1004A0000BE01D682E780A27303E7C43F7B2092FF7
:1004B00003D80135A4191D60012012F1FF32F0D2DA
:1004C00007E00A26744312F1FF32FAD201E001324A
:1004D0001A601A681578A5F1300C5FFA8CF6092EAF
:1004E000F5D92C2D06D101321A6030B121B10C6042
:1004F0000120F0BD0020F0BD0120F0BD37B50D4654
:10050000052201A90446FFF7B3FF30B30198184B49
:1005100090FBF3F25343C11A64224A433C2092FBFE
:10052000F0F2216801929A180B784E2B08D002D86D
:10053000452B07D104E0532B01D0572B02D1524257
:100540004B1C2360236893F800C0BCF12C0F04D12E
:10055000591C216045B12A6006E0236818782C28D0
:1005600004D15A1C226001E0012000E000203EBDC1
:100570008096980073B55C4E5C4D306A5C4900957E
:10058000431C3362284606220AF050F934460028FC
:1005900048D102AE063546F8085D684601A9032237
:1005A000FFF766FF08B1019B01E04FF0FF33E36105
:1005B000684601A9FFF7A2FF08B1019B01E06FF0B7
:1005C00000432360684601A9FFF798FF08B1019B2B
:1005D00001E06FF0004300210A4663606846FFF7C0
:1005E00047FF684601A90022FFF742FF08B19DF8C6
:1005F000040084F8250001A968460322FFF738FFAC
:1006000008B1019B01E04FF0FF336361684601A927
:100610000322FFF72DFF08B1019B01E06FF00043BB
:1006200023615FE00622284632490AF0FFF80246BD
:1006300070B9E97908352C29009553D1684601A98C
:10064000FFF716FF00284DD0019A86F8242049E0D4
:100650002846294906220AF0E9F8002842D102ABCF
:10066000063543F8085D684601A90322FFF700FF3D
:1006700008B1019B01E04FF0FF33E361009B5A1C7E
:1006800000925878991C2C2800912BD1684601A91A
:10069000FFF734FF08B1019B01E06FF000432360D6
:1006A000684601A9FFF72AFF08B1019B01E06FF03E
:1006B00000436360684601A90322FFF7D9FE38B101
:1006C00001980E4941F21843584390FBF1F300E0C2
:1006D0000B4BE360684601A90322FFF7C9FE00B196
:1006E0000198A0607CBD00BFCC2800204C2B0020CE
:1006F000A8270208AF270208B6270208A086010033
:10070000FFC99A3B38B5284C2378032B48D8DFE83B
:1007100003F0020C2635242844D10120234A244921
:10072000207000201070087038BD2A281F4B07D198
:1007300093F800C01F49002001F80C00022319E0C3
:100740001A784F2A09D81B49885401321A70184B5D
:10075000197880EA01021A7022E000200CE0144BA4
:10076000154A19780B1112F803C084454FF00000A8
:1007700002D10323237038BD207038BD0C4B0E4AC4
:1007800093F800C00CF00F01555C85424FF0000556
:1007900003D1FFF7EFFE012000E02846257038BDA9
:1007A000002038BD002038BD0C2700206527002020
:1007B000B42C00204C2B0020662A02080A4B0B4A5E
:1007C0006FF000400021DA604FF0FF32186058608F
:1007D000986018615A619A6183F82410196283F84D
:1007E0002510DA61704700BFCC280020FFC99A3B72
:1007F00070B51A4C1A4D237855F833102E4600293F
:100800002BD005EBC30003794BB912E0144B15480C
:1008100053F83210495D07F07FF9013500E00025FB
:10082000227806EBC20003799D42EFDB0E4A13707B
:100830000AE00C4806F0B5FD94F800C055F83C00FD
:1008400009F0C4FF08490870074B1878092801D837
:100850000A221A7021784B1C237070BD5C2700207F
:10086000782C0020742F0020BC28002038B50E4CB6
:100870000E4800254FF4965184F8265007F070F981
:1008800084F8275006E0FFF773FD95F82700431C16
:1008900085F8273094F82710034D0029F3D0BDE8E0
:1008A0003840FFF78BBF00BFCC280020742F0020FA
:1008B000F8B5404CA06A431CA36233E03E4807F001
:1008C0009BF994F82430C5B2C3B93A4A82F827306C
:1008D0000EE02846FFF716FF28B1384B384D1E7042
:1008E000012129700EE097F82700461C87F8276041
:1008F00094F827602F4F002EEBD013E02846FFF727
:1009000001FF78B194F824201AB92A4D012185F805
:1009100024102C4B21686268206919600025A562AB
:100920005A609860244807F07CF90028C6D1244D0D
:100930002B7833B1012B01D1FFF75AFF2B78581ECA
:10094000287094F82420A16A002A14BF4FF4FA708A
:10095000C82081422DD90025164BA5629AB993F87B
:100960002600411C5FFA81FEBEF1050F83F826E0E8
:1009700088BF83F8262094F826C0134A0E4852F800
:100980002C1007F0EDF8002384F8243084F8273089
:1009900006E0FFF7EDFC95F827104A1C85F82720A4
:1009A00094F82700034D0028F3D0BDE8F840FFF786
:1009B00005BFF8BDCC280020742F00205C27002044
:1009C000BC280020F42B002090270208064B93F847
:1009D0002420012A06D993F82500052894BF002079
:1009E0000120704700207047CC280020014BD869B7
:1009F000704700BFCC2800201FB50DF1100C0CE98A
:100A000007009DED010ADFED097AB8EEC07A67EEC6
:100A1000276A16EE900A0DF0E5F80EF06FFA0DF069
:100A200017FC034B186005B000BD00BF50E0EF306D
:100A30004C0C00202A4B07EE101A196801EE101A10
:100A4000D2ED040AB8EE410A07EE900A254830EECE
:100A5000606ADFED256A037886EE265A82ED040A85
:100A600077EEC75A33B1D2ED051A45EE851AC2EDBD
:100A7000051A01E000205061D2ED066A92ED056A88
:100A8000F1EE667AB4EEE76AF1EE10FA08D4B4EE4D
:100A9000666AF1EE10FACCBFF0EE667AF0EE467AB6
:100AA000D2ED034A92ED024A77EE643ADFED0F2A67
:100AB00063EE843A65EE222A92ED013AC3EEA22A51
:100AC00082ED037A92ED007AC2ED057A67EE837AC1
:100AD00045EE877A37EEA22A12EE100A704700BF61
:100AE000542D00208C280020002474490000C842A6
:100AF0000C490D4B086807EE100AF8EE477A002201
:100B00005A61C3ED047A1A63C3ED0B7ADA64C3ED5C
:100B1000127A9A66C3ED197AC3F88420C3ED207A5D
:100B2000704700BF542D00203429002091ED005A59
:100B30009FED203A05EE900A9FED1F2A65EE037A9D
:100B400045EE827AD1ED014ADFED1C2A44EEA27A0D
:100B500091ED024A44EE037AD1ED031A41EE827A16
:100B600091ED047A9FED161A47EE017AD1ED056AF0
:100B7000DFED140A46EEE07A91ED066A9FED120A67
:100B800046EE007A91ED073ADFED103A43EE637AD4
:100B9000086081ED034AC1ED024A81ED015A81ED01
:100BA000076AC1ED066A81ED057AC1ED047A17EE98
:100BB000900A7047D58111BB7932F83A1A1B5E3B17
:100BC000382F5740200B89400A771C404CF3063FD2
:100BD0000D4B0E4A0020186058609860D86018616C
:100BE00058619861D861186258629862D862186337
:100BF00058639863D8631A645A649A64DA641A650D
:100C00005A659A65DA657047DC2700206DE71CC1DC
:100C10004160704710B5044607F01CF9204607F004
:100C2000C6F901462046FFF7F3FF00232372204652
:100C300010BD2DE9F04104460D460079012117460B
:100C40001E4607F099FA2079002107F03FFA204666
:100C500029463A463346BDE8F04107F021B9F8B5D8
:100C600004460D46007900211F46164607F084FA17
:100C7000207A60F07F031D43E9B2204607F08EF929
:100C80003D4606E02046002107F088F906F8010BF2
:100C9000013D002DF6DC20790121BDE8F84007F088
:100CA0006BBA07B501230DF10702FFF7D8FF9DF8D6
:100CB00007000EBDF8B504460D46007900211F4619
:100CC000164607F059FA237A1D43E9B2204607F089
:100CD00065F93D4605E0204616F8011B07F05EF970
:100CE000013D002DF7DC20790121BDE8F84007F037
:100CF00043BA07B502AB03F8012D1A460123FFF7EB
:100D0000D9FF0EBD0248052101220323FFF791BF41
:100D10001027002010B5064C204607F0DFF801210F
:100D200020460A460323BDE81040FFF782BF00BFFC
:100D30001027002008B503460A4604481946FFF765
:100D4000D8FF0120BDE8084007F0B3B91027002004
:100D500010B501460448FFF7A4FF0446012007F040
:100D6000A8F9204610BD00BF102700201E4B10B56B
:100D70001C78002C36D101221A70FFF7C3FF7520B2
:100D8000FFF7E6FF00F07E0068282BD1174B1868AC
:100D900040F0030119606B208021FFF7CBFF642036
:100DA00007F087F96A201021FFF7C4FF6B200321A9
:100DB000FFF7C0FF6C202146FFF7BCFF192021463A
:100DC000FFF7B8FF1A200321FFF7B4FF1B20102103
:100DD000FFF7B0FF1C200821FFF7ACFFBDE8104073
:100DE000FFF798BF10BD00BF0E270020942D0020F4
:100DF00001EBD171491004E003784278437002702E
:100E0000023011F1FF31F7D27047000010B5064CE7
:100E100006483B2122460E23FFF721FF20460E21E4
:100E2000BDE81040FFF7E4BFA827002010270020EE
:100E3000074810B5074C016822684B1C93420360B9
:100E400004D0FFF7E3FF23685A1C226010BD00BFE7
:100E5000FC2A00200827002010B5074C074821680D
:100E600002684B1C9342236004D0FFF7CFFF236836
:100E70005A1C226010BD00BF902D002008270020C2
:100E8000024A034B1A60FFF771BF00BF58A00B3A2C
:100E9000A427002008B5FFF749FA124BDFED127ABC
:100EA00093ED027AB4EEE77AF1EE10FA0F4B06DC1E
:100EB0009FED0F0AB4EEC07AF1EE10FA10D5196862
:100EC0000C4A411A01EE901A9FED0B1AF8EE616A76
:100ED000D2ED000AC6EE816A47EE260AC2ED000A8C
:100EE000186008BDBC27002035FA8E3C5C28002025
:100EF00035FA8EBCD82B00200024744910B5FFF7BA
:100F0000ABFF0D4B0D491C68B1F908000C4A2418C1
:100F10001C6010605C68B1F90A00B1F90C105060F7
:100F2000201858609868916041189960054B1878AE
:100F3000421C1A7010BD00BF702D0020A827002091
:100F4000C82700208C2D00207FB51F4B1F4D1A682D
:100F500095F800C0596892FBFCF41D4A1068566869
:100F6000241A91FBFCF0301A9E689168019496FB5C
:100F7000FCFC0022CCEB01011A605A609A602A70D6
:100F800001EE904A134A144B029000EE900A06EECE
:100F9000901AD2ED007AB8EEE11AB8EEE00AB8EE97
:100FA000E67A21EE271A20EE270A67EE277A0391C8
:100FB00083ED001A83ED010AC3ED027A04B0BDE8A7
:100FC0007040FFF767BF00BF702D00208C2D002000
:100FD000002B0020A4270020BC27002070B5B2B051
:100FE00000243194154D22E0FFF710FF144B14B983
:100FF000B3F9083005E0012C0CBFB3F90A30B3F99E
:101000000C304DF806300A20043607F052F8C42E92
:10101000EAD13121684631AA05F0ECF9319B192B50
:1010200007DC0134E4B2032C45F8040F03D000269A
:10103000DAE7002000E0012032B070BDFC2A002079
:10104000A8270020FFF792BE08B5FFF7F1FE0C4B72
:101050000C4A1868B2F900C000EB0C01196058681E
:10106000B2F90210B2F904C09A68401802EB0C0100
:1010700058609960044B1878421C1A7008BD00BF74
:101080006C270020A8270020C02C0020F0B5114AB2
:10109000114C17781148124900231646114D5A5920
:1010A00092FBF7F200EE102A04340430F8EEC06A26
:1010B00094ED007AD0ED007A46EE877A002217EEA2
:1010C00090CA5A5104330C2B41F804CFE6D1327048
:1010D000F0BD00BFC02C0020BC2A0020AC2800209E
:1010E000BC2800206C27002010B5002408E0FFF782
:1010F0008DFEFFF7A9FF40F6C41006F0D4FF0134BF
:10110000B4F5C87FF3D1204820490023204C1A5958
:1011100000EE902A9FED1F0AB8EEE07A043087EEC9
:10112000007AD0ED007A67EE277A17EE902A41F820
:10113000042F00221A5104330C2BE7D11649174B08
:1011400017481A7091ED022ADFED162A72EEC21AC4
:10115000D1ED004A32EE211AD1ED013AB5EEC01AB6
:10116000F1EE10FA104BB1EE644AB1EE633AD8BF1B
:10117000B1EE411A80ED004A80ED013AC0ED021A4D
:1011800083ED001A10BD00BFBC2A0020BC2800203F
:101190006C2700200000C843C0280020C02C00207D
:1011A000B02800206DE71CC1682C0020044901EB29
:1011B000800393ED000AFDEEC07A17EE900A7047A7
:1011C000582C0020044901EB800393ED000AFDEE4A
:1011D000C07A17EE900A7047A02A002010B546206A
:1011E000002106F073FF0024462004F001010134C1
:1011F00006F0C2FFE4B2322006F05BFF0A2CF3D106
:101200004520002106F062FF4520002106F0B4FFD2
:101210004520002106F05AFF4520002106F0ACFFD2
:101220002020032106F052FF1020032106F04EFF7C
:101230002420032106F04AFF1120032106F046FF77
:101240002520032106F042FF2220032106F03EFF65
:101250000321232006F03AFF3720002106F036FF55
:101260004020002106F032FF4120002106F02EFF31
:101270003420002106F02AFF034817211622BDE87A
:10128000104007F069B800BF9C2F0020074B0849A9
:101290000848094A196058609A600849084B09488B
:1012A000094A196058609A60704700BFC02A002040
:1012B000A8E49C3A17F19DBA91459ABA00001843E8
:1012C000402700200000C0410000844138B5074D90
:1012D000074C2A682068131AB3F57A7F05D3FFF705
:1012E0000DFEFFF7B1FE2968216038BD542D0020A6
:1012F0002C2C00200448054A0023036043608360CF
:1013000013605360704700BFEC2A0020C82C0020F7
:101310002DE9F84F2DED068BDDED108A08EE103A21
:1013200068EEA82A48EE082A9DED119ADDED127AA2
:1013300049EE092AB6EE003A27EE833ADFF83092FA
:10134000864C874F874D884EDFF828A2DFF828B2F9
:10135000DFF8288289ED003A09EE900A12EE900A31
:101360000AEE902A0AEE101A0CF03CFC0EF03EF940
:101370000CF06EFF02EE100A88EE825AD8F80000D8
:10138000C9EE023AD4ED000A97ED006AD5ED006A85
:1013900096ED000A66EE261A26EEA01A50EE201AE6
:1013A00006EE001A20EE000A16EE060A88EE024A41
:1013B00006EEE60A00EEA00A71EE015A20EE058A5A
:1013C00015EEA38ADAED007A9BED007A48EE077AF3
:1013D00071EEA14A25EE849A64EEA38A18EE101AE3
:1013E00050EE048A14EE859ACAED007A05F026F8CC
:1013F000434610B10022CAF80020DFF88491DFF8DC
:101400008481D9ED004A9BED007A48EE874A83ED4E
:10141000008AC9ED004AD8F8000018EE901A05F0CD
:101420000DF8434610B10020C9F80000DFF85881DC
:101430009BED004A98ED005A09EE045ADFF84CB1D2
:10144000C3ED008A88ED005ADBF8000019EE101A8F
:1014500004F0F4FF43465A4608B10021196082EDBA
:10146000009A424AD2ED000A40EE89AA40EE889ADC
:1014700000EEA8AAD3ED003AD9ED006A9AED006A11
:101480007AEEA3AAD5ED004A3AEE26AA97ED007AA5
:1014900079EE869A96ED005A64EEAA5A24EE8A0AEC
:1014A00047EE295A94ED001A15EE690A41EE4A5AA0
:1014B0002F4B25EE2A4A01EE6A0A17EE0A4A93EDEF
:1014C000003AF0EE452A65EE0A7A45EE832A01EEEF
:1014D000294AB0EE472A47EE2A7A00EE032AF0EEB8
:1014E000641A44EEE97A44EE031A22EEA26A02EE8E
:1014F000026A07EE831A01EEA16A01EE016A87ED26
:10150000002A16EE100AC6ED002AC5ED001A84ED79
:10151000001A0CF067FB0EF069F80CF099FED7ED9D
:10152000006A05EE900AD6ED000AD5ED003A94ED7A
:10153000000AC6EEA56AC0EEA50AC3EEA53AC0EE43
:10154000255AC7ED006AC6ED000AC5ED003AC4EDA4
:10155000005ABDEC068BBDE8F88F00BF302F00208D
:10156000242F00202C2F0020282F00205827002077
:101570000C2B0020282B0020542700207C2D00203D
:10158000BC2A0020802D002078280020842D0020F7
:101590002DE9F8433C4C3D4E3D4D3E4F2DED048B27
:1015A000D4ED005A96ED008AD5ED007AD7ED008A89
:1015B00068EE255A48EEA75AB7EE009A35EEA55ABE
:1015C00015EE100A0CF00EFB68EE084A48EEA84A29
:1015D000804634EEA44A894679EE443A13EE900AE6
:1015E0000CF000FB02460B46404649460DF008FE53
:1015F0000CF02EFE97ED006AD4ED002AD5ED006ABE
:1016000096ED003A66EE222A56EE832ADFF88880AD
:1016100032EEA22AC8F8000012EE100A0CF0E2FA2C
:101620000DF09AFD0CF014FED6ED008AD7ED001AED
:1016300095ED007A94ED008A68EEA11A48EE071A3B
:10164000C8F8040031EEA11A11EE100A0CF0CAFA23
:1016500068EE080A48EEA80A044630EEA00A0D46D5
:1016600079EE407A17EE900A0CF0BCFA02460B466F
:10167000204629460DF0C4FD0CF0EAFDC8F808002C
:10168000BDEC048BBDE8F883302F00202C2F002008
:10169000242F0020282F0020EC2A002008B5FFF777
:1016A00029FE0F4B0F491048104A4FF07E5CC3F8DB
:1016B00000C000230B60036013600D490D480E4A03
:1016C0000B60036013600D490D480E4A0B60036008
:1016D00013600D480D490E4A0E4B08601A6008BD94
:1016E000242F0020282F00202C2F0020302F002016
:1016F000282B0020BC2A0020782800207C2D0020E8
:10170000802D0020842D0020CDCC4C3E5827002079
:101710006F12033A542700201FB5DDF818E0DDF8FA
:101720001CC0074CCDF800E0CDF804C0246802943A
:10173000FFF7EEFD04B0BDE81040FFF729BF00BF82
:10174000600C00202DE9F041069DD06100279762D2
:1017500013606E1E1D68B30005F1340808EB03002A
:10176000556014469060D762918216624FF0010274
:1017700002FA03F84FEA480060622168087905F030
:10178000D5F91A4AB0FBF2F3581E4FF6FF71A86262
:10179000E9622F60EA6822F00103EB60286A20EA20
:1017A000080129622B6A626A012E23EA02032B6276
:1017B000D4BF05F1180305F11C0306F001001968F8
:1017C000C000FF2616FA00F221EA02061E601A681F
:1017D000612111FA00F616431E60296A012348EAC6
:1017E000010028622B60BDE8F08100BF40420F007D
:1017F00073B500241148124A235C1B01D5186E688A
:10180000BEB1D058297B0A2204F096FF697B0D4BAC
:101810000091302202FB0432204640F2DC51334674
:10182000FFF790FF084A697B52F82420304605F004
:10183000A9FA0134082CDDD17CBD00BF502D02086F
:10184000E81A0020982D0020780C002043681A6ABE
:10185000416A4A401A627047416883681B680A6A95
:10186000416A1142816A10B514BF0022012291B170
:101870000AB1C38213E0C48A191B1FFA81FCACF5BC
:1018800060735C1FA1B240F2AE44A14294BFA0F8C5
:1018900014C0826203E012B10122C3828262BDE8F9
:1018A0001040FFF7D3BF0000024B302202FB003094
:1018B000FFF7D2BF982D00200720FFF7F5BF0620C5
:1018C000FFF7F2BF0520FFF7EFBF0420FFF7ECBFE3
:1018D0000320FFF7E9BF0220FFF7E6BF0120FFF773
:1018E000E3BF0020FFF7E0BF08B5FEF74FFDBDE8FE
:1018F0000840FFF77DBF0000064B1B5C072B06DC92
:10190000054A302000FB0321888A80B2704740F2EC
:10191000DC507047B02D0208982D002070B50024CF
:101920002DED028B33E03048A6008119204691ED61
:10193000008AFFF7E1FF2D4B02EE900A9A1992ED13
:10194000002AB8EEE27A55F82420294B294808EEFF
:10195000072A01EE102AFDEEC21A9E1911EE901A06
:10196000F8EEE17AF8EEC10A40F82410326817EE7A
:10197000900A10EE901A04F025FD00EE100ABDEE5C
:10198000C06A16EE100A45F824000134E4B21A4D7C
:101990002A681A4D9442C6DB194C94ED007A002354
:1019A0001849EC5858581849241A04EE904A04EE85
:1019B000100AF8EEE46AF8EEC43A46EE873ABDEE55
:1019C000E33A13EE100A585004330C2BE8D10323EA
:1019D00005E055F8230041F823000133DBB29342C0
:1019E000F7DBBDEC028B70BD7C270020002C0020B3
:1019F000842C00202C2D002050270020A42B002018
:101A0000F82A0020CC2B00200829002038B50B4DE7
:101A100000240EE00A4A0B4814F802C055F8042FBF
:101A200000EB0C1392B259680868597BFEF7A6FCCC
:101A3000013405490B689C42ECDB38BDD82C0020F2
:101A400088270208E81A0020E82A002038B5054651
:101A500000240BE0084B0948E15C00EB0113013462
:101A60005A68597B1068AAB2FEF788FC04480268DD
:101A70009442EFDB38BD00BF88270208E81A002037
:101A8000E82A0020F8B51E4D0728C8BF08202860A6
:101A9000002418E01B4E1C4FA65D07EB061701340F
:101AA0007868007905F042F818497B68B0FBF1F2DC
:101AB0001B68511E88B240F6055298620721DA620F
:101AC000304606F003FB29688C42E3DB00230EE07E
:101AD0000C480D4A13F800C002EB0C125068026863
:101AE000500100F184420120C2F880021B188B4291
:101AF000EEDB4FF47A70BDE8F840FFF7A7BF00BFF8
:101B0000E82A002088270208E81A002040420F0037
:101B100038B5054600240FE040F24C40FFF796FF31
:101B2000FA2006F0C6FA4FF47A70FFF78FFFFA201A
:101B300006F0BFFA0134E4B2AC42EDD138BD00008A
:101B40002DE9F041C41FE4B21A2C1AD9212801D979
:101B50001B38C0B2492404FB00130A24604300EB85
:101B6000D10C284C284A14F80C00D25C802401F0D7
:101B7000070154FA01F10842134640D0504283B2A3
:101B80003DE0224E335D002939D0002206F12500C8
:101B9000154605E010F801CB571C6544ADB2BAB24A
:101BA000A242F7D32A46002012E07F42BFB24FF094
:101BB000000CC4450ADC884208D8DB1901300CF15E
:101BC000010C9BB2C0B25FFA8CFCF2E7013292B218
:101BD000371997F82570EF19BA4210DA88420ED8F3
:101BE0000B4F17F802C04FEA5C180CF00F070CF00F
:101BF000100C5FFA8CFCBCF1000FD6D1D7E718B2FD
:101C0000BDE8F081022A0208762A0208582D02084F
:101C10004023020806EE100A9FED5D7AF8EEC67AC0
:101C20002DE9F04FC7EE877ADFED5A6A2DED028B72
:101C3000F4EEE67AF1EE10FA83B00BD49FED560A7B
:101C4000F4EEC07AF1EE10FA07DCFDEEE77A17EE5B
:101C5000907A03E06FF0590700E05A2700EE901ADF
:101C6000F8EEE07A9FED4D8AC7EE877A9FED4C7AC9
:101C7000F4EEC77AF1EE10FA09D4F4EEC87AF1EE78
:101C800010FA07DCBDEEE71A11EE106A03E06FF000
:101C9000B30600E0B426052497FBF4F00BF090FFA8
:101CA0000DF06EF9804696FBF4F00D460BF088FFC0
:101CB0000DF066F9002282468B463A4B4046294693
:101CC0000BF0E4FF0CF07CFA0FFA80F808F15A09E7
:101CD00099FBF4FC0022334BCDF800805046594666
:101CE0005FFA8CF50BF0D2FF0CF06AFA0FFA80FA6B
:101CF0000AF1B40090FBF4F05FFA80F84146284600
:101D0000FFF71EFF814608F101005FFA80FB59468C
:101D10002846FFF715FF0135EDB203465946284620
:101D20000193FFF70DFF414683462846FFF708FF62
:101D30000199DDF800C0CAEB060696FBF4F6C9EB84
:101D40000103C0EB0B0101FB060B03FB069905EE3B
:101D5000909ACCEB070704EE90BA97FBF4F4B8EE38
:101D6000E52A05EE104AB8EEE44AB8EEC53A74EE3C
:101D7000423ADFED0D2A03EE232A22EE222AC2EE9A
:101D8000081A11EE900A03B0BDEC028BBDE8F08F8B
:101D90008096184B0000B4C20000B44200003443E7
:101DA000000034C300001440DB0F49402DE9F0412E
:101DB0002DED108B8CB0DDED228A08EE103A28EE66
:101DC000A81A08EE081A9DED239A0A9109EE091A3D
:101DD0004FF07C5103EE101ADDED270ADFF8608327
:101DE000099060EE830A11EE100A0B92C8ED000A0A
:101DF0009DED25AA0BF0F6FEDDED249ADDED26AA79
:101E00000DF0F4FB0CF024FA2AEE0A0A09EEA90AF6
:101E10000AEEAA0A02EE900A10EE100A88EE22FAE2
:101E2000BD4EBE4DBE4CBF4FC8EEA2FAC9EE22EA6F
:101E30000BF0D8FE0DF0DAFB0CF00AFA09EE100AEE
:101E40008AEE09BA4FF07C50C9EE89BA8AEE899AB7
:101E5000D6ED001A03EE100A95ED006A94ED007AB3
:101E600001EEE13AD7ED005A7BEE0B9A27EE071A06
:101E700026EE06EA08EE100A3BEEAB4A21EE862A71
:101E800065EE870ACDED019A79EE098A73EE412A53
:101E90009DED010A8DED004A38EE4EAA32EE204A41
:101EA000CDED028ADDED014A72EE608ADDED00AA19
:101EB0007AEE416A26EE07DA65EEA1DA20EE228A92
:101EC0009DED005A65EE86CA21EE87CA0AEE848A25
:101ED00064EEA88A45EE268A7DEE6D9A9DED029A03
:101EE0007CEE2C3ADDED027A09EE298A47EEA38AD0
:101EF00028EE088A08EEA88A8DED033A18EE100A3B
:101F00000BF070FE0DF072FBD7ED008A95ED009A94
:101F100096ED008AD4ED009A68EE89AA58EE29AAB7
:101F200028EE085A3AEEAAAA18EEA85A8DED04AA8D
:101F300029EE29AA69EE096A08EE88AA29EEA97A8B
:101F400075EE661A7AEE0A4A71EE875ACDED054AA9
:101F5000CDED066A8DED077ACDED085A0CF078F9D3
:101F60009DED086ADDED052A66EE2F4A52EEAE4A77
:101F70009DED040A6C4A6D4BD2ED006A93ED004A68
:101F800060EE2E1A56EE0F1A02EE100A6848694BE0
:101F900044EE846AD0ED005ADDED010A3DEE2DDA03
:101FA000DDED003A3CEE6CCA41EE845ADDED037A79
:101FB00020EE8D1AC2ED006A03EE8C1A5E4A9DED8A
:101FC000023A37EECEEA62EE8F0AD2ED003A50EED8
:101FD0002F0A9DED095AC0ED005A03EE0E1A4FF07C
:101FE0007C5093ED000A03EEA45A02EE900A9DED98
:101FF000066A00EE840A72EEC64A9DED074A28EE94
:10200000A93A31EE011A9DED0A7A18EE093A75EEF9
:10201000266A32EE022A34EEC45A03EEA17A61EE49
:102020000A1A21EE2A1A02EE051A42EE031ADDED13
:102030000B7A2BEE011A43EEA07A83ED000A1BEE19
:10204000A11A3E4B77EE255A93ED007AF0EE670A1F
:1020500041EE070A69EE257A30EE806A58EE667A1C
:1020600069EE063A48EEA63A28EE063A49EEE53A17
:1020700049EEC67A18EEA53A98ED002A68EE252AB0
:10208000B0EE484A03EE824A09EEA63A48EE862AA6
:10209000F0EE684A47EE824A49EE662AB0EE495AA7
:1020A00003EE025A64EE041A44EEA41A42EE829A37
:1020B00045EE051A49EEA91AC7ED004A11EE900A3D
:1020C00086ED004A85ED005AC4ED009A0BF08AFDBA
:1020D0000DF08CFA0CF0BCF897ED001A07EE900AA0
:1020E000D6ED000A95ED000A94ED007A81EE271AEC
:1020F000C0EEA70A80EE270AC7EE277A87ED001AFE
:10210000C6ED000A85ED000AC4ED007A0CB0BDEC06
:10211000108BBDE8F08100BF402B0020442B002035
:10212000482B00203C2B0020D42C0020E82B002042
:1021300038270020182F0020D82C0020742C0020D5
:10214000242D00202DE9F8433C4C3D4E3D4D3E4FA3
:102150002DED048BD4ED005A96ED008AD5ED007A72
:10216000D7ED008A68EE255A48EEA75AB7EE009AD6
:1021700035EEA55A15EE100A0BF034FD68EE084A4C
:1021800048EEA84A804634EEA44A894679EE443A9D
:1021900013EE900A0BF026FD02460B4640464946D8
:1021A0000DF02EF80CF054F897ED006AD4ED002AEB
:1021B000D5ED006A96ED003A66EE222A56EE832AA5
:1021C000DFF8888032EEA22AC8F8000012EE100A6A
:1021D0000BF008FD0CF0C0FF0CF03AF8D6ED008AC9
:1021E000D7ED001A95ED007A94ED008A68EEA11AF9
:1021F00048EE071AC8F8040031EEA11A11EE100AD1
:102200000BF0F0FC68EE080A48EEA80A044630EE2F
:10221000A00A0D4679EE407A17EE900A0BF0E2FC28
:1022200002460B46204629460CF0EAFF0CF010F857
:10223000C8F80800BDEC048BBDE8F883482B0020EB
:10224000442B00203C2B0020402B0020A428002001
:10225000024B186059609A60704700BFA4280020A4
:102260002DE9704F2DED068B8CB008EE100A1A98F0
:1022700009EE902A1E4608EE901A0BF0B3FC814638
:10228000304688460BF0AEFC02460B4648464146B7
:102290000CF0B6FF0BF0DCFF68EEA80A48EE080A67
:1022A00049EEA90A0AEE900A10EE900A0BF09AFC89
:1022B0000DF09CF90BF0CCFF00EE100A88EE009AAE
:1022C0004FF0000688EE808AC9EE808A68EEA89AF0
:1022D000F0EE697A49EE097A17EE900A0BF082FC6B
:1022E0000DF084F904460D4618EE100A0BF07AFC46
:1022F00022462B460CF084FF0BF0AAFFF5EEC08AB5
:10230000F1EE10FA0AEE100A02D5B1EE4AAA0AE07E
:102310009FED7A1AB5EEC08AF1EE10FAACBF3AEE34
:1023200041AA3AEE01AA48EE089AB6EE008A19EEE2
:10233000900A0BF057FC0DF059F904460D4619EEC2
:10234000100A0BF04FFC2B4622460CF059FF0BF005
:102350007FFF08EE900A1AEE902A1AEE100A18EE85
:10236000901AFFF775FF6AEE087A17EE900A0BF0E5
:1023700039FC04460D460CF0C1FD68EE887ACDE9C3
:10238000020117EE900A0BF02DFC804689460CF0F6
:10239000B5FDCDE90601DDE90623DDE902010BF01B
:1023A00075FC6AEE887ACDE9080117EE900A0BF009
:1023B00019FCCDE904010CF0A1FDCDE90001204696
:1023C00029460CF07DFE82468B46404649460CF07D
:1023D00077FE04460D4622462B46504659460BF0E2
:1023E00055FCCDE90A01DDE904010CF069FEDDE9E7
:1023F000002380468946DDE908010BF047FC424690
:10240000CDE904014B46DDE90A010BF03FFC024631
:102410000B46DDE904010BF087FA0BF019FF384B8E
:1024200059461860DDE9062350460BF02FFC224682
:1024300082468B462B46DDE902010BF027FCDDE9E5
:10244000002304460D46504659460BF01FFC4246F9
:10245000CDE902014B46204629460BF017FC024607
:102460000B46DDE902010BF05DFA0BF0F1FE254BA6
:1024700029461860DDE9002320460BF007FC4246A0
:1024800004460D464B46504659460BF0FFFB0246AC
:102490000B46204629460BF047FA0BF0D9FE1A4BA3
:1024A000424618604B46DDE908010BF0EFFBDDE921
:1024B000002304460D46DDE90A010BF0E7FB024666
:1024C0000B46204629460BF02DFA0BF0C1FE0F4BB0
:1024D0000F4A18600F4B10491E60104B1E60104BC6
:1024E0001E60104B1A60104B0B6010490A60104AB6
:1024F00013600CB0BDEC068BBDE8708FDB0F49405C
:102500003C2B0020402B0020442B0020482B002097
:10251000CDCC4C3ED42C0020E82B002038270020C6
:10252000182F0020D82C00206F12033A742C0020A2
:10253000B827002007B50549054B0868054A0090F3
:10254000002001461B68FFF78BFE0EBD2C270020E4
:1025500028270020CDCC1CC110B586B0099CDDF821
:1025600020C001940C9CDDF828E0CDF800C0049454
:10257000DDF82CC00D9CCDF808E0CDF80CC005941A
:10258000FFF714FCFFF7DEFD164A174BD2ED007A79
:1025900093ED027AF5EE407A144BF1EE10FA83EDEA
:1025A000007A1CD077EE277A9FED117AF4EEC77A85
:1025B000F1EE10FAC3ED007A04DD9FED0E0A77EE1E
:1025C000C07A0AE0DFED0C0AF4EEE07AF1EE10FAE0
:1025D00005D59FED081A77EE817AC3ED007A06B033
:1025E00010BD00BF302B0020A4280020EC2B0020C1
:1025F000DB0F4940DB0FC940DB0F49C07FB50F4BF4
:102600000F4A59680091D3F808C00E49CDF804C0AC
:1026100008680290D1F804E00B48CDF80CE0D1F83E
:1026200008C0CDF810C001680591106851681B689A
:102630009268FFF791FF07B000BD00BF142B002088
:10264000BC270020A02A0020600C002008B5FFF75E
:10265000E1FA014B186008BD302B002010B504468C
:1026600003F077FE01EE900AB8EEE11A84ED011A4C
:1026700003F06FFE404200EE900AB8EEE00A84EDEF
:10268000020A03F066FE07EE100AF8EEC77AC4ED00
:10269000007A10BDF8B5474D474C2DED088B074625
:1026A0000E461E20032103F037FE1E21062243485A
:1026B00005F0CCFE2846FFF7D1FF1E2002210122A3
:1026C00003F068FE3E4B3F4A3F494048D3ED003A95
:1026D00093ED013A95ED022AD3ED022AD5ED009A49
:1026E00095ED019A72EE228A39EE039A79EEA39A59
:1026F000C2ED008AC4ED009A80ED009AC1ED028A15
:102700003846C1ED009A81ED019A0BF06BFA044650
:102710000D460CF0F3FB0BF09BFD29460BEE100A67
:1027200020460CF0CDFC0BF093FD0AEE900A3046EB
:102730000BF058FA04460D460CF0E0FB06460F4637
:10274000204629460CF0BCFC0BF082FD39460AEE0F
:10275000100A30460BF07CFD69EE2A1A01EE100AD1
:1027600021EE8A8A09EE818A68EE8B0A68EEAA8ACF
:1027700059EE0B8A00EE8A8A28EEA80A08EE080AAB
:10278000F1EE688A10EE100A0BF02CFA0CF02EFF16
:102790000BF05EFD07EE900A88EE277A0C480D4B91
:1027A000C8EEA77A80ED007AC3ED007ABDEC088B05
:1027B000F8BD00BF582C0020DC2B00209C2F0020EF
:1027C0004027002074280020A02A0020E02B0020B1
:1027D000282700202C2700200A2008B505F069FCD6
:1027E0001E2003F0BBFD102804D10D4B186840F0EB
:1027F00004021A60012120221E2003F0CBFD1420C8
:1028000005F057FC02211E20012203F0C3FD142015
:1028100005F04FFC00200146BDE80840FFF73ABF35
:10282000942D00200548064B90ED007A93ED000AA8
:1028300077EE407A17EE900A704700BF182D0020FF
:102840006C2D002030B5C489002224F0FF03C38121
:1028500013464FEA620112F0010F15BF10F8111074
:1028600030F811104B4083EA1123082113F4004F74
:102870004FEA43031DBF83F440554FF6FE732B40D0
:102880009BB20139F2D10132102AE2D1C481180B76
:1028900030BD000070B5124D0646A02430462146DA
:1028A00003F03AFD02220F48314605F0CFFD022821
:1028B00013D103F045FD0234E4B2B02C25F8020F29
:1028C000ECD1094C2046FFF7BDFFE18901F00F0371
:1028D000C21A504240EB020070BD002070BD00BF24
:1028E000FA2C00209C2F0020FC2C00201E2103F03D
:1028F00013BD000010B50021044603F00DFD0322B6
:1029000021460B4805F0A2FD094805F0B2FD032859
:102910000BD103F013FD044603F010FD000240EA62
:10292000044403F00BFD204310BD002010BD00BF88
:102930009C2F00207620582103F0EEBC2DE9F843AF
:102940007620FFF7D7FF1849184A8B884C8910600A
:102950004FEA034824020B89154D041BA3FB0467AF
:102960004FEAE47C03FB0C77F20942EA4762FB1171
:102970004FF0000912EB080243EB0903C5E90023FD
:102980004B88DE03CB880B49A3FB044503FB0C55A6
:10299000220A42EA056200272B12921943EB070331
:1029A000C1E90023BDE8F883FC2C00206828002042
:1029B000D02A0020B82C00207620482103F0ACBC9F
:1029C00038B57620FFF796FF124B134918600B6855
:1029D0004968C217414303FB0212A3FB00010F4BDE
:1029E0005118D3E90023440D44EAC1244D15A21A1D
:1029F00065EB0303900A40EA835099120BF048FDFF
:102A0000DFED077A06EE900A66EEA76A16EE900AE8
:102A100038BD00BFD4270020B82C0020D02A0020C9
:102A20000000003D38B5164C23782DED028BF3B134
:102A3000144D95ED008AFFF7C3FF07EE900A124987
:102A400038EE278A85ED008A0D786A1C0F4D0A70D2
:102A50002878142805D1FFF76DFF00232B70237011
:102A600001E0FFF7A9FF2A78501C287005E0FFF766
:102A700065FFFFF7A1FF01212170BDEC028B38BD7E
:102A80007927002060270020252B0020342F0020EC
:102A9000F8B52D4D2B78002B51D006EE903A2B4CEB
:102AA0002B4B94ED007AF8EEE67AC7EE277A9FED8D
:102AB000297AC7EE876AC3ED007A16EE900A0BF00A
:102AC00091F8254B064618680F460BF08BF8024626
:102AD0000B46304639460CF0EFFB02460B46002011
:102AE0001E491F4E0AF01EFF15A3D3E900230BF069
:102AF000CDF80BF0ADFB1B4B18601B4B197819B1CF
:102B0000002230601A7005E0184B31681A6803F033
:102B100059FC306000222260154C20780021297079
:102B200068B9FDF703FC13490B68C3EB000C1248AE
:102B3000844504D93068114B012218602270F8BD19
:102B40000000000040A5E540252B00206027002064
:102B50001C27002080E6C5477C0D00200000F03FC8
:102B6000182D00200C2D0020980C00202C0C00208B
:102B7000302C002020270020809698006C2D00200B
:102B800008B5FFF74FFFBDE80840FFF781BF000021
:102B900010B52DED028B9FED0C8A1924FFF7F0FF85
:102BA0000A4BD3ED007A0C2038EE278A05F081FA23
:102BB000013CF3D1B3EE090A88EE000A044880ED27
:102BC000000ABDEC028B10BD000000000C2D00209F
:102BD0006C2D002010B5FDF7A9FB1A4C1A49206096
:102BE0001A4A1B4B1B4C1A6000200860206076209C
:102BF000FFF77CFE032005F05CFA7620FFF74AFE23
:102C000020B1154B186840F008021A60FFF792FED9
:102C10001249134800230B7003700A2005F049FA8B
:102C2000FFF700FF0A2005F044FAFFF7A9FF0A208A
:102C300005F03FFAFFF7ACFFFFF7AAFF2168094A4A
:102C4000116010BD202700201C270020AEDC423E72
:102C50007C0D00206C2D0020942D00207927002071
:102C6000342F0020182D00200D4A0E490E4B096804
:102C700010681A680D4BC0EB010C10B5C2EB0C04C8
:102C800001EB000C0A481C600068C2EB0C049C605D
:102C90000C1A0918A4188A185C60DA6010BD00BF0D
:102CA000202F0020240C0020642C0020DC2C00208D
:102CB000D827002010B5FDF789FE30B1034B1C6802
:102CC000FDF794FE201A18BF012010BD342B002000
:102CD00008B5FDF78BFE014B186008BD342B0020B2
:102CE000034908686FF00043C01A18BF01207047FD
:102CF000540C0020F7B5454C2368013301D1002066
:102D000020602368002B0CDC414ADFED427A92ED13
:102D1000007AB4EEE77AF1EE10FA02D53B495D1C79
:102D20000D6022683C4D3D4B002A07DC0C205043CF
:102D300029186FF000468A68B24206D1384F3A68C7
:102D400078681A605860BA6814E064264F6828589A
:102D50005F6092FBF6F101EE101ADFED320AB8EE79
:102D6000C10A1860B4EEE00AF1EE10FA996002DDD3
:102D70004FF4FA629A602C492C4804F012FB276841
:102D80002A48FB170A263A46009604F023FB2748F8
:102D9000274904F006FB2548264904F002FB206879
:102DA0000C277843295821480096CB170A4604F08F
:102DB00011FB1E48204904F0F4FA1C481F4904F096
:102DC000F0FA236807FB03514868009643421A460D
:102DD0001648DB1704F0FEFA1448174904F0E1FA2C
:102DE0001248174904F0DDFA2168104807FB015525
:102DF000AB6800961A46DB1704F0ECFA0B480C4956
:102E000003B0BDE8F04004F0CCBA00BF200C0020B5
:102E1000000C00200080BB44B80C00209C0C00205B
:102E2000540C00200000FA44BD270208682F00203F
:102E3000CD270208CF270208EC2E0208E22702085D
:102E4000F627020810B5FFF735FFD0B1FFF740FFB6
:102E50000C4B1A780E2A02D801321A7010BD0A4C97
:102E60000A4B206861681860052259609A60FFF774
:102E7000EDFB94E80700FDF7BFFDBDE81040FFF74C
:102E800039BF10BD512C0020F42B0020540C002021
:102E900038B5144CFDF74AFA226813492060831AAA
:102EA0000B60124B124A1D681860411B114B1248EF
:102EB0001C6811600168114A0D1B156042685C684E
:102EC000806883E80600151B98600D4C0D4B25604B
:102ED0001D680D4C986025605D6883E8060065609C
:102EE00038BD00BF802C0020202D0020242700208A
:102EF000DC2A0020340C0020F42B0020542C00206D
:102F00003C2C0020400C0020AC0C00202DE9F04FA0
:102F10002DED028B8DB00DF1300E0EE90700584BF0
:102F2000584C5E680A981D68099F90FBF4FC96FB5C
:102F3000F4FA04FB1C0B04FB1A6905EE909A06EEEA
:102F400010BAF8EEE54AB8EEC67A9FED4F8AC4EEA5
:102F5000884A97FBF4F887EE087A06EE90CA07EEE7
:102F600090AAB8EEE60AB8EEE75A30EE074A75EED8
:102F7000243A34EE633A13EE100A0AF033FECDE938
:102F800000010CF09DF804FB187202EE102AB8EE56
:102F9000C21A02EE908A81EE081ACDE90201F8EE1B
:102FA000E21A71EE810A10EE900A0AF01BFE064644
:102FB0000F460BF0A3FF894695FBF4F1804604FB16
:102FC000115006EE100AB8EEC60A06EE901A80EE10
:102FD000080AB8EEE67A77EE007A17EE900A0AF061
:102FE00001FE04460D460BF089FFCDE90401304691
:102FF00039460CF065F882468B46204629460CF08F
:103000005FF8CDE90601DDE900010BF077FF4246EC
:103010004B4606460F46DDE902010AF037FE0BF08B
:1030200017F90AF0DFFD5246CDE900015B46DDE904
:1030300004010AF02BFE424604460D464B46DDE9EC
:1030400006010AF023FE32463B460AF01FFE024606
:103050000B46204629460AF065FC0BF0F9F80AF009
:10306000C1FD0B460246DDE900010CF0C9F80BF08A
:10307000EFF8064B18600DB0BDEC028BBDE8F08F89
:10308000400C0020809698008096184BC42C00209D
:1030900030B587B003AC84E80700274B049D5A681D
:1030A000A91A00EE901A254D1968254A95ED000AD7
:1030B000B8EEE07A451A06EE105A27EE007ADFEDF8
:1030C000217AF8EEC66A27EE277A66EEA77A82EDB5
:1030D000007A27EE077A07EEA77A1B4A1B4DC2ED4E
:1030E000007A17EE100A0AF07DFD0CF07FFA0BF063
:1030F000AFF817492860174804F053F928680AF018
:1031000071FD02460A200B460090124804F000FAB6
:103110001149104804F045F9104B01221A70104B68
:10312000197839B91A7094E8070007B0BDE8304043
:10313000FFF7ECBE07B030BD400C00204C0C002067
:103140006C2C00202C7D8E3F702C0020000C002069
:1031500009280208682F0020CD270208242B002010
:1031600030290020000000002DE9F843484A494B6F
:103170005068596812681B68411A06EE901A464951
:10318000B8EEE67AD1ED007AD31A06EE903A27EE41
:10319000277ADFED427A2DED048B67EE278AB8EEB1
:1031A000E67A27EE279A68EEA87A49EE097A17EEB2
:1031B000900A0AF017FD0CF019FA0BF049F8384B99
:1031C000384A1B6892FBF3F307EE903A06EE900A3A
:1031D000B8EEE78A66EE889A68EE886A16EE900A7C
:1031E0000AF000FD69EE087A044617EE900A0D46D3
:1031F0000AF0F8FC02460B46204629460CF000F87F
:1032000021A3D3E900230AF041FD0BF021F807EEDA
:10321000900AF5EEC07AF1EE10FA48BF9FED227ADF
:10322000224B48BF77EE877ADFED216A93ED007A73
:1032300017EEA67A17EE100A0AF0D4FC80468946EB
:103240000BF03EFF064619EE900A0F460AF0CAFC44
:1032500004460D4622462B46304639460AF016FDF6
:103260000AF0F6FF134B4946186040460BF046FE45
:103270002B4622460AF00AFD0AF0EAFF0E4B1860C0
:10328000BDEC048BBDE8F88300000020DCA54C40B9
:10329000400C0020AC0C00204C0C00202C7D8E3FFC
:1032A000DC2A0020A08601000000B443EC2B0020A3
:1032B00035FA8E3C282C0020AC2A0020AFF3008089
:1032C000F8B5684B2DED048B18680AF08BFC664A44
:1032D000044610680E460AF085FC02460B4620465E
:1032E00031460BF08DFF0F466049614E0546086878
:1032F0000AF078FC02460B46284639460AF012FBD3
:103300000AF0A6FF30600AF06DFC04460D460BF093
:10331000D7FE06460F46204629460BF0EFFD044631
:103320005448554B90ED008A0D463046394693ED92
:10333000009A0AF08DFF06EE100A28EE060ADFED6D
:103340004F9A20EE090A2046C0EE298A29460AF043
:103350007FFF07EE100A68EE077A67EE897A87EE3C
:10336000A97AF1EE487AF4EEE78AF1EE10FA09D480
:10337000F4EE488AF1EE10FACCBF18EE100A18EEFF
:10338000900A01E017EE900AB4EEE77AF1EE10FA37
:1033900009D4B4EE487AF1EE10FACCBF18EE104A18
:1033A00017EE104A01E017EE904A354A1168354A87
:1033B000FDF740FB3449354A096808EE100A2046FB
:1033C000FDF738FB324ABDEEC88A01EE100A1368D9
:1033D00018EE10CAFDEEC10A9C4510EE900A01DB02
:1033E000013300E0013B13602A4B1968884201DB7E
:1033F000013100E0013928481960D2ED001AD0ED02
:10340000007AF8EEE16AB1EE677AF4EEC76AF1EE9F
:1034100010FA02D5FDEEC76A08E0F4EEE76AF1EEB5
:1034200010FACCBFFDEEE76AFDEEE66A93ED002AE6
:10343000C2ED006AF8EEC26AF4EEC76AF1EE10FA65
:1034400002D5FDEEC77A08E0F4EEE76AF1EE10FA75
:10345000CCBFFDEEE77AFDEEE67AC3ED007ABDEC77
:10346000048BF8BD6C2C0020702C0020EC2B00206D
:10347000402C0020040C0020000C002000007A44A6
:10348000282C0020682A0020AC2A00204C2A00208A
:103490007028002068270020680C00200449054B94
:1034A000886807EE100AF8EEC77AC3ED007A704715
:1034B0009C0C0020A02B002008B5254B9FED257A01
:1034C000D3ED007AF4EEC77AF1EE10FA11DD17EEC3
:1034D000900A0AF087FB1CA3D3E900230BF092FEAD
:1034E00019A3D3E900230AF01DFA0AF0B1FE07EE92
:1034F000900A002017EE901A174AFDF79BFA01EE8A
:10350000100AF1EE410AFDEEE07A9FED140AF8EEA2
:10351000E77AF4EEC07AF1EE10FA0BD4DFED101A70
:10352000F4EEE17AF1EE10FA07DCBDEEE72A12EED6
:10353000103A03E06FF0C70300E0C823094A1360A4
:1035400008BD00BFAFF3008000000060FB21094010
:10355000402C0020DB0F4940842A0020000048C393
:10356000000048436028002038B52C4BDFED2C7A52
:1035700093ED007AB4EEE77AF1EE10FA30D534200C
:10358000002104F0A3FD274C2748284903F009FF38
:103590002548274903F005FF25687DB934202946D1
:1035A00004F094FD3420012104F0E6FD3720294683
:1035B00004F08CFD3720012104F0DEFD2068FA289C
:1035C0000AD13420002104F0D7FD0021372004F077
:1035D000D3FD144901220A602068431C236038BDD2
:1035E000FFF768FBC8B1FFF753FCFFF771FBFFF76C
:1035F000BBFDFFF77FFB0F4A07CAFFF749FD0E48E7
:103600000E4B0F4A0F4918600A60FFF759FEFFF78B
:1036100045FFBDE83840FFF74FBF38BD000C002024
:103620000080BB442C2B0020682F0020212802089A
:10363000CD2702089C0C002000001644040C00203A
:1036400000009643680C002008B5FDF7BFF938B1BB
:1036500004480378012B03D1BDE80840FFF784BF7D
:1036600008BD00BFFC2800202DE9F843404B414E27
:103670001A78414F012A984675D1404DFFF7D2F88C
:103680002C683F4A01462046FDF7D4F900EE100AA7
:103690003C49FDEEC06A0C6816EE900AA0428946CD
:1036A00004DB394B1C68A042B8BF044614F57A7F8E
:1036B00059D0364A00201168354AFDF7BBF907EEAC
:1036C000900AD9F8000000EE900AB1EE677AF8EEA1
:1036D000E07AB4EEE77AF1EE10FA0CD42A4B1968CE
:1036E00001EE101AF8EEC17AB4EEE77AF1EE10FAB4
:1036F000D8BFF0EE477A274A27491368FA68086866
:10370000C2EB030CBCF1000FB8BFCCF1000C844538
:1037100003DD022088F8000018E02049096803EB67
:10372000010E724507DD95ED002ADFED1D1A32EE20
:10373000217A85ED007A581A824207DAD5ED003AEF
:103740009FED173A73EEC32AC5ED002A1C1905EE4A
:10375000904AB8EEE55A75EE274ABDEEE44A86ED8A
:10376000004ABDE8F883FB683360BDE8F88300BF1A
:103770000D270020240C002008290020A02B002069
:10378000142A0020280C0020640C00203C27002074
:10379000302A00201C0C00200C0C0020100C0020F3
:1037A0000AD7233C2DE9F04F2DED028B8548864C3E
:1037B0000378864E864D012B83B004D0854A11785C
:1037C000012940F08680DFF85892DFF85882824A5B
:1037D000D9F80030D8F800001168804AC0EB030A1D
:1037E0000AEB010706EE907A9FED7D8AF8EEE67A05
:1037F0007C4F27EE887A396817EE100AFDF71AF920
:10380000794B824618784A46434610B1774801788A
:10381000B9B97749586852680B687F68C0EB020CE9
:103820000CEB030201EE102AF8EEC10A87F000410A
:1038300020EE880A6F4A10EE100AFDF7FBF80746E3
:103840002EE06D4801687C29834601DC0831016067
:103850005168DBF800005A687F6801EB000EC2EB8C
:103860000E0002EE900AB8EEE22A87F0004162EE06
:10387000081A604A11EE900AFDF7DCF85F49074626
:103880005F4803F08EFDDBF800105D480A230093CB
:103890000A46CB1703F09EFD59485A4903F081FDB3
:1038A0002168594A5046FDF7C5F804EE900A63684E
:1038B000564ABDEEE44A384683F0004186ED004AA0
:1038C000FDF7B8F803EE900ABDEEE33A85ED003A55
:1038D00073E04F4A1778012F46D1DFF84491DFF8A3
:1038E0004481D9F80000D8F800703C4AC11B08EEAA
:1038F000101AB8EEC81A9FED3A8A3A4F61EE080ADC
:10390000396810EE900AFDF795F8D8F80430D9F828
:10391000042079688246D01A00EE100AF8EEC07AC8
:1039200081F0004167EE886A324A16EE900AFDF790
:1039300081F82168344A07465046FDF77BF807EEC8
:10394000100AD4F804C0314ABDEEC76A38468CF07C
:10395000004186ED006AFDF76DF805EE900ABDEEB8
:10396000E55A85ED005A28E02A4F0020FCF768FD53
:10397000D4ED005A97ED006A25EE865A264A15EED8
:10398000101AFDF757F804EE900ABDEEE44A012044
:1039900086ED004AFCF754FD94ED013AD7ED003A6C
:1039A00063EE632A1D4A12EE901AFDF743F802EE09
:1039B000100AFDEEC21AC5ED001A03B0BDEC028B71
:1039C000BDE8F08FFC280020BC270020D82700206D
:1039D000202F0020E02A00207028002088290020C5
:1039E000A69BC43AEC2A0020242B00207827002034
:1039F00068270020A4290020F02B00203628020888
:103A0000682F0020CD270208DC290020F82900209B
:103A1000A0280020300C002034290020502900204C
:103A200008290020CC2B00201B4B1A781B4B032AA3
:103A30000CD0052A19D0012A0CBF4FF4FA624FF4BA
:103A40007A721A605A609A60DA6023E01448026859
:103A5000B2F5966FB4BF11464FF49661B2F57A7F16
:103A6000ACBF0A464FF47A72EBE700220D49515879
:103A7000B1F57A7F05DBB1F5966FA8BF4FF496617B
:103A800001E04FF47A7199500432102AEED1064BBE
:103A900001221A70FDF7BABF9D2B0020DC2C0020FC
:103AA000780D002090280020B82A00202DE9F84F3A
:103AB0002DED028B2A482B4C0378012B03D02A4A88
:103AC0001178012939D1DFF8A8802568D8ED000ADE
:103AD0009FED268A20EE880A10EE100A0AF082F87E
:103AE0000BF00CFAD8ED017A27EE887A064617EE2D
:103AF000100A0F460AF076F80BF000FA80462846C6
:103B000089460AF05DF8424682468B464B4630466F
:103B100039460AF0BBF80B460246594650460AF0B1
:103B2000DFF90AF04DFBC5EB000CBCF1320FA8BF6A
:103B30004FF0320C2CEAEC7300E0002320681B18D5
:103B4000B3F57A7F05DB40F23A718B42A8BF0B4692
:103B500001E04FF47A732360BDEC028BBDE8F88F6F
:103B6000FC280020240C0020E02A0020CDCC0C3FB3
:103B7000EC2A0020154A164B106816494FF4FA62D9
:103B800010B59A60DA601A605A60134B086048609A
:103B90008860C86093E8060098689142B8BF1146F3
:103BA000DA688142B8BF01469142B8BF114600228F
:103BB000B1F5FA6F05DD9C58C1F5FA6C04EB0C0009
:103BC00098500432102AF3D110BD00BFB42A00204F
:103BD0005C2D00207C280020DC2C0020064A516946
:103BE00040F2D563994205DD90699842CCBF002030
:103BF00001207047012070470829002038B5FFF7E1
:103C0000EDFF0F4CC0B12378022B18D00D4D287852
:103C100078B9FEF707FE0C490C4BC1F8EC001860B0
:103C20000B480C4B0022C1F8F420C26801211A6035
:103C300029700120207038BD02492070087038BDFD
:103C40000D2700201C2D002034290020A02B00204F
:103C5000082900201C0C00202DE9F0413648374C83
:103C60000378D3B9E26840F24B439A4215DCA1686D
:103C7000994212DC656840F26C739D420DDD266846
:103C80009E420ADDFCF7A2FE38B12D4A2D4B116889
:103C900050681960052758609F60A4692A4F2B4E11
:103CA00040F2D565AC422A4C2A4D10DC23783BB952
:103CB00029492A4A2A480B601360036001232370B4
:103CC00000200123387028703370BDE8F0811B4B51
:103CD0005A6940F2E1418A4221DC2B78C3B91E497E
:103CE0001E4A0B601E4816491360DFF87880036097
:103CF0004A680B68C8F80420C8F80030FEF792FD47
:103D000000EE100AFDEEC07A0120C8ED027A28709C
:103D100000200123207030703B70BDE8F0810E4818
:103D20000E4B0F4A002139702970317021700160EB
:103D300019601160BDE8F0810429002008290020E5
:103D4000F42B0020540C0020E02A0020FC28002046
:103D5000352F0020642700207028002068270020CD
:103D6000602800206C0C00202DE9F041A14BA24DF1
:103D70001868A249A24C2DED028B421C82B01A6039
:103D8000A04803F00EFB9FEDA08AD5ED003A23EE8C
:103D9000C83A0A2613EE100A09F024FF02460B4621
:103DA0009848009603F0B4FBD5ED002A22EE882A4D
:103DB000A84612EE100A09F015FF02460B4691487C
:103DC000009603F0A5FB8F48904903F0EAFA8D486E
:103DD0008F4903F0E6FAD4ED001A21EEC81A2746FF
:103DE00011EE100A09F0FEFE02460B4685480096C9
:103DF00003F08EFBD4ED000A20EE887A17EE100A4D
:103E000009F0F0FE02460B467E48009603F080FB68
:103E10007C487E4903F0C5FA95ED000A20EE087A49
:103E2000D4ED007AF0EE476A47EEC86AF5EEC06A54
:103E3000F1EE10FA09DDB2EE044AF4EEC46AF1EED6
:103E400010FA8CBF0023012308E0FAEE044AF4EED6
:103E5000E46AF1EE10FAB4BF002301236D4D6E4CFD
:103E600023B3297811B3012217EE100A227009F04A
:103E7000B9FE0A2602460B466248009603F048FB4C
:103E80006048664903F08DFAD7ED005A25EE885A4E
:103E900015EE100A09F0A6FE02460B465948009698
:103EA00003F036FB5748594903F07BFA27785C4EFC
:103EB0006FB13368F92B0ADC3420002104F006F9D5
:103EC0003420012104F058F93168481C306036680C
:103ED000534FFA2E06D13420002104F04DF93B68EF
:103EE0005A1C3A604F48504E0778012F4F4F40F010
:103EF000BE804F4A4F49504B92ED007AD8ED007A80
:103F00009FED4E6A67EE887A37EE468A77EEC76A8B
:103F1000F4EEC87AF1EE10FAC1ED007AC3ED006A52
:103F200005D89FED470A76EE806AC3ED006A37EE4A
:103F3000066AF4EEC67AF1EE10FA07DB93ED001A8A
:103F4000DFED3F0A31EE607A83ED007AF86840F2E7
:103F50004C4C604540F3848034483A498068096895
:103F600000EB010EAEF5B860C11E32290AD9364900
:103F7000364B0020C2ED007A00223060C1F8A0006C
:103F80001A7031E093ED007AF5EE001AB4EEE17AA2
:103F9000F1EE10FA06D5BDEE002AB4EEC27AF1EECB
:103FA00010FA5FDC29480378A3B92949294B09682D
:103FB000D3F800C0DFF8A4E0CCEB010CF44556D9EF
:103FC0004FF0010EC2ED007A002280F800E0196087
:103FD00032604CE02878002849D1002017EE101AF2
:103FE0001D4AFCF727FD3060194A1A4B1168196009
:103FF0003DE000BF102B0020EC2B002044280208DD
:10400000C42C0020682F0020E12E6542CD27020835
:1040100063280208242B0020782700208628020825
:10402000E42B0020502C0020142D00200829002013
:10403000442C0020382B0020282D00200000344381
:104040000000B4436028002034290020B02A00205A
:10405000542D00201C2F0020C029002020A1070083
:10406000C2ED007A394800213160C0F8A0102A78EA
:10407000374B384DDFED387AC2B12078B0B93748C8
:104080002A6801688A4201DD013A2A609968B868A5
:104090002B68C1EB000E0EEB030C03EE10CAF8EE1A
:1040A000C32A2F482F4922EEA78A13E022782AB18B
:1040B0002A68002A02DA2749501C0860BA689B68FF
:1040C00027482949C3EB020C04EE10CAF8EEC43AA3
:1040D00023EEA78A03F065F92B680A205942CB1713
:1040E0000A4600901E4803F075F91D481F4903F069
:1040F00058F9DFED1F7AD6ED004A04EEA78ADFED0E
:104100001D7AB4EEE78AF1EE10FA0BD49FED1A5A3D
:10411000B4EE458AF1EE10FACCBF15EE100A18EE97
:10412000100A01E017EE900A1449154A8968FCF755
:1041300081FC06EE900A134AFDEEE65AC2ED005AE3
:1041400002B0BDEC028BBDE8F08100BF3429002035
:10415000CC2B0020F82800200BD7A33B500C0020CC
:10416000682F0020C8280208DA280208CD27020894
:1041700035FA8E3CDB0F49C0DB0F4940BC270020DD
:104180006C290020642C0020F8B5FFF70BFBFFF72B
:10419000EBFD29480368D90705D4FFF755FAFFF767
:1041A00063FAFFF783FC254C217821B1244D2A784E
:1041B0000AB1FEF759FDFFF7DDFC224B2249D86812
:1041C00040F24B4C604501DD002315E01F4A204EB4
:1041D000204F126836783D780023CA502EB1002D4A
:1041E00014BF10464FF4FA6000E010461A4FD85141
:1041F0000433102BF1D1E7E71848CA581D589542EF
:1042000004DB154A9A589542B8BF2A46C250043377
:10421000102BF1D1217809B9FFF706FC207801288D
:1042200009D1074B93F800E0BEF1010F03D1BDE8BF
:10423000F840FDF7EBBBF8BDE42A0020042900207C
:10424000B82A0020082900207C280020B42A002059
:104250008C280020A02800205C2D0020DC2C0020D1
:1042600038B585B22946074802F027F80024A91C72
:1042700060F30F0489B2034802F01FF860F31F4493
:10428000204638BD382F002038B504468DB2294667
:10429000A2B2054802F019F8A91C034889B2220C01
:1042A000BDE8384002F011B8382F002038B585B28B
:1042B0002946074802F001F80024A91C60F30F0406
:1042C00089B2034801F0F9FF60F31F44204638BD6E
:1042D000382F002038B504468DB22946A2B20548D1
:1042E00001F0F3FFA91C034889B2220CBDE8384055
:1042F00001F0EBBF382F00200B4A38B51C2404FB1B
:10430000002408460D46FFF7ABFF2060281DFFF78D
:10431000A7FF606005F10800FFF7A2FF0023A0607F
:10432000E360636138BD00BF3429002038B5094B14
:104330001C2404FB00340D462068FFF7A5FF6068CD
:10434000291DFFF7A1FFA06805F10801BDE838406D
:10435000FFF79ABF34290020F8B5544A544C554E03
:10436000554B564F56485749574DA6606662626591
:104370002267C4F8B060C4F8CC60544A23604FF0A0
:104380007E56E361A763C4F88C00514F5148C4F8CE
:10439000A830C4F8C4300E604F4B504965602562A8
:1043A000C4F8E42000256FF03102C4F89000C4F88E
:1043B000E030C4F8F830A565494BE5656567A56749
:1043C000E7632564C4F89450C4F8AC50C4F8C850EE
:1043D000C4F8E850C4F8FC50C4F80051C4F80451C3
:1043E0000A60404A3221196010603F4B3F485A2111
:1043F000FA2219600260FCF749FF3D4B3D4804F189
:1044000018021860BC4600233146082B18BF106004
:104410005E1CF3B21C320D2BF7D1374E374A3848A9
:10442000384B316040F27E4717601860364F374E88
:1044300037480822013AD2B247F8041F002346F851
:10444000045F40F8041F002AF4D132493248C4F80E
:1044500038314FF07C5EC1F808E03049027001202D
:1044600008702F482F49C0F800C00A602E482F4915
:10447000C4F83C31C4F81C31C4F82031C4F85431BC
:10448000C4F858312A4BC4F85011C4F83401C4F8A8
:10449000180103F1C0016FF0004243F8042C43F807
:1044A000082C43F80C2B8B42F5D1F8BD000060407E
:1044B000342900200000AFC30000C8420000484378
:1044C00000004040300C0020000016439A99193F2C
:1044D0000000A040CDCCCC3D0000C841280C0020FD
:1044E000640C00202C0C0020100C00200C0C002070
:1044F000882D002000007A44F82A0020B42A0020E9
:104500000AE81CC1682C002078270020FC2B002022
:10451000802C0020842C0020A0280020502C00207B
:104520003027002034270020CDCC4C3F00004842EB
:10453000C00C0020002038B50146FFF7DDFE012049
:104540002421FFF7D9FE02201821FFF7D5FE032012
:104550000C21FFF7D1FE04203021FFF7CDFE05200E
:104560003C21FFF7C9FE06204821FFF7C5FE542174
:104570000720FFF7C1FE4FF4A670FFF771FE624CF3
:10458000624D206060210820FFF7B6FE4FF4A07056
:10459000FFF766FE5E4CC4F8F8004FF49E70FFF71C
:1045A0005FFE28604FF4A270FFF75AFE03EE100A78
:1045B000584B594DFDEEC32A4FF4A470C3ED002AA9
:1045C000FFF74EFE02EE100A544AFDEEC21A4FF4F7
:1045D0009C70C2ED001AFFF743FE01EE100A50492D
:1045E000FDEEC10A4FF49A70C1ED000AFFF738FEE4
:1045F00000EE100A4B48FDEEC07AC0ED007A0920AB
:104600006C21FFF779FE4FF4B470FFF729FE2860A4
:104610004FF4B670FFF724FE68604FF4B870FFF7F0
:104620001FFEA8604FF48C70FFF71AFE3E4B183443
:1046300018600023082B18BF2060591CCBB21C3413
:104640000D2BF7D14FF49070FFF70AFE07EE100A1A
:104650003648374DFDEEC76AC0ED006A4FF49270E0
:10466000FFF7FEFD334A10604FF49470FFF7F8FD3A
:1046700006EE100AFCEEC65A2F4915EE904A4FF48A
:1046800098700C70FFF7ECFD28604FF49670FFF700
:10469000E7FD05EE100AFCEEC54A284B14EE902A01
:1046A0004FF4E0701A70FFF7DBFD04EE100A2448A7
:1046B000FDEEC43A7821C0ED003A0B20FFF71CFE56
:1046C0000A208421FFF718FE0C209021FFF714FE2A
:1046D0004FF4E4742046FFF7E9FD1A4A1519A5F5D1
:1046E000E2710860201FFFF7E1FDA5F5E473A5F571
:1046F000E0751860201DFFF7D9FD0C34B4F5227F5A
:104700002860E7D138BD00BF300C00202C0C002001
:1047100034290020100C0020402700200C0C002021
:10472000280C0020640C0020882D0020B42A0020D2
:10473000682C002030270020A0280020502C0020CA
:1047400034270020B80C0020F8B572B600200146CE
:10475000FFF7ECFD01202421FFF7E8FD03200C21E9
:10476000FFF7E4FD04203021FFF7E0FD02201821CF
:10477000FFF7DCFD05203C21FFF7D8FD7D4D7E4C89
:104780007E4E06204821FFF7D1FD07205421FFF778
:10479000CDFD28684FF4A671FFF776FD0820602153
:1047A000FFF7C4FD764A4FF4A071D2F8F800FFF786
:1047B0006BFD744908684FF49E71FFF765FD206832
:1047C000714C03EE100AF8EEC32A4FF4A27112EEF8
:1047D000900AFFF759FD6D4B1F6802EE107AF8EE54
:1047E000C21A4FF4A47111EE900AFFF74DFD35681F
:1047F000674F684E01EE105AF8EEC10A4FF49C71F3
:1048000010EE900AFFF740FD634A644D116800EE18
:10481000101AF8EEC07A4FF49A7117EE900AFFF76B
:1048200033FD09206C21FFF781FD20684FF4B4713E
:10483000FFF72AFD60684FF4B671FFF725FDA06809
:104840004FF4B871FFF720FD55484FF48C710068A4
:10485000FFF71AFD534B4FF48E711868FFF714FDE4
:10486000002404F19C0157F8040FFFF70DFD04F13B
:10487000A00156F8040FFFF707FD04F1A40155F855
:10488000040F0C34FFF700FD602CEAD146490C6898
:1048900007EE104AF8EEC76A4FF4907116EE900AD0
:1048A000FFF7F2FC4148424C00684FF49271FFF769
:1048B000EBFC404B1D7806EE105AF8EE465A4FF4CA
:1048C000947115EE900AFFF7DFFC3B4A117805EE74
:1048D000101AF8EE454A4FF4967114EE900AFFF75D
:1048E000D3FC20684FF49871FFF7CEFC33484FF4A7
:1048F0008A71FFF7C9FC00204FF4C071FFF7C4FCB8
:1049000000204FF4C271FFF7BFFC2D48036804EE8E
:10491000103AF8EEC43A4FF4E07113EE900AFFF744
:10492000B3FC0B207821FFF701FD0A208421FFF75B
:10493000FDFC0C209021FFF7F9FC4FF4E4742148B2
:104940000519A5F5E27321461868FFF7C3FCA5F524
:10495000E472A5F5E075211F1068FFF7BBFC211D6F
:1049600028680C34FFF7B6FCB4F5227FE7D162B6B5
:10497000F8BD00BF300C0020100C0020280C0020D7
:10498000342900202C0C0020402700200C0C002093
:1049900078270020FC2B0020640C0020802C0020B5
:1049A000882D0020F82A0020B42A0020302700207B
:1049B000682C0020A0280020502C0020CDCC4C409A
:1049C00034270020B80C002038B54FF49870FFF75A
:1049D00047FC114B114D18604FF4AA70FFF740FCD3
:1049E00028604FF4A870FFF73BFC0D4C20604FF49B
:1049F000AE70FFF735FC68604FF4AC70FFF730FC29
:104A000060604FF4B270FFF72BFCA8604FF4B070F9
:104A1000FFF726FCA06038BD682C0020C02A0020CB
:104A2000B028002038B5144B144D1868144C4FF4BE
:104A30009871FFF729FC28684FF4AA71FFF724FC4E
:104A400020684FF4A871FFF71FFC68684FF4AE713F
:104A5000FFF71AFC60684FF4AC71FFF715FCA8680B
:104A60004FF4B271FFF710FCA0684FF4B071BDE8CD
:104A70003840FFF709BC00BF682C0020C02A002086
:104A8000B028002038B5254CA26840F24B439A422A
:104A90000BDC234D2878012807D14FF47A70FCF7FE
:104AA000D5FF204900222A700A70A0681B4A40F2F4
:104AB0004B43984212DC106840F26C7C60450DDD7F
:104AC000516899420ADCFCF789FAFCF70DFBFFF705
:104AD000A9FFFCF70DF80320FDF71AF8A26840F2D1
:104AE0006C739A4210DD0E4B187868B90E490A783B
:104AF000012A09D10D491A7040F24C400860486003
:104B00008860C860FBF7F4FFA26840F24C4C624535
:104B100002DD054B0120187038BD00BF08290020B8
:104B2000042900208C280020B82A0020DC2C00203A
:104B300038B5194CFCF7F2FEE26840F24B439A425A
:104B400001DCFFF79FFF154B187848B914490A7824
:104B5000012A05D11349E56808688542C8BF1A7063
:104B60002469114D40F2DC5E7445104C94F800C08D
:104B7000D4BF4FF0000E4FF0010EF44585F800E071
:104B800003D0FBF7B5FF2A782270FFF737F8BDE8AE
:104B90003840FFF761B800BF082900208C280020AA
:104BA00004290020B42A0020A0280020080C00209E
:104BB000F8B54FF48E70FFF753FB0E4B0E4F0F4EB0
:104BC0000F4D1860002404F19C00FFF749FB47F8E3
:104BD000040F04F1A000FFF743FB46F8040F04F1B3
:104BE000A400FFF73DFB0C34602C45F8040FEAD11C
:104BF000F8BD00BFF82A002078270020FC2B0020F9
:104C0000802C002010B5FBF7E1FE0F4C50B1FEF7F1
:104C100067F810B14620012108E02178462001F014
:104C2000040103E02278462002F0020103F0A4FA16
:104C3000064909784520012918BF002103F09CFA94
:104C40002078431C237010BD382C0020A0280020A1
:104C5000074BD3ED007AF5EEC07AF1EE10FA44BFBF
:104C60009FED047A77EE877A17EE900A704700BFBF
:104C7000EC2B0020DB0FC940F8B5002604460F4698
:104C8000067035460F4803F0EBF928B901200136CC
:104C900003F00FFAF6B206E00A4803F0F4F96055A3
:104CA0000135EDB2002625B1601910F8013C3B2B0F
:104CB00004D0092E02D8791E8D42E3DB0022625512
:104CC000F8BD00BF982F00201FB500210B2201A8BE
:104CD000009105F035FD68460F21FFF7CDFF6846CE
:104CE00005F076FC09F0B4FA05B000BD38B505460C
:104CF000002403E0FFF7E8FF0134E4B2AC42F9D14D
:104D000038BD0000084910B51C2404FB0014FFF74F
:104D1000DBFF2060FFF7D8FF6060FFF7D5FF0023BF
:104D2000A060E360636110BD3429002010B5044623
:104D3000FFF7CAFFDFED0B7A07EE100AB4EE677AD1
:104D4000F1EE10FA4FF00000074B04D1074A1C7037
:104D50001070012010BD1870054B4FF47A71196066
:104D600010BD00BF66E6F6429D2B002004290020FE
:104D7000780D00201FB500210C2201A8009105F03C
:104D8000DFFC68461021FFF777FF684605F024FC3A
:104D900005B000BDF8B5884803F062F9002800F0BE
:104DA000AC81854803F06FF9844B1870313829289D
:104DB00000F2A381DFE810F05A015C01610170018B
:104DC0007D01A101A101A101A101A101A101A101F7
:104DD000A101A101A101A1012A0034004500560052
:104DE0008B009900A700B600C800D800DC00EC00DA
:104DF000F200FD0028014001A101A101A101A101D2
:104E0000450147015401A101A10190010020FFF7D4
:104E100079FF0120FFF776FFFFF756FF684B0EE0A2
:104E20000320FFF76FFF0420FFF76CFF0620FFF75A
:104E300069FF0720FFF766FFFFF746FF614B186029
:104E4000F8BD0220FFF75EFF0520FFF75BFFFFF7CD
:104E50003BFF00EE100ABCEEC07A5B4917EE100A69
:104E60000870F8BD0820FFF74DFFFFF72DFF574BE7
:104E7000C3F8F800FFF728FF03EE900A544ABDEE8E
:104E8000E33A82ED003AFFF71FFF02EE900A514924
:104E9000BDEEE22A81ED002AFFF716FF01EE900A2F
:104EA0004D48FDEEE17AC0ED007AFFF70DFF01EE0F
:104EB000100A4A4BFDEEC10AC3ED000AFFF704FFDA
:104EC000474A10600920BDE8F840FFF71BBFFFF715
:104ED000FBFE44490860FFF7F7FE04EE900A4248E3
:104EE000BDEEE44A80ED004AF8BDFFF7EDFE3F4C11
:104EF00020603F4C04F12005FFF7E6FE44F8040F64
:104F0000AC42F9D1F8BDFFF7DFFE05EE900A394A51
:104F1000BDEEE55A82ED005A15EE104AFFF7D4FEB9
:104F2000354B0DE0FFF7D0FE06EE900A314BBDEE9B
:104F3000E66A83ED006A16EE104AFFF7C5FE2F4BB6
:104F400003EB84042060F8BDFFF706FAFFF7FCFBD3
:104F5000FFF768FDFCF742F8FBF7CAFDFDF73CFCE4
:104F6000BDE8F840FDF736BEBDE8F840FCF736B8BE
:104F7000FFF7AAFE224C2060FFF7A6FEFFF7A4FE73
:104F80006060FFF7A1FEFFF79FFEA060FFF79CFEA9
:104F9000FCF7AAF8BDE8F840FFF744BDFFF794FE20
:104FA000184C2060FFF790FE6060FFF78DFEA06058
:104FB00052E0032041E000BF982F0020180C002091
:104FC000300C0020882D0020502C00203429002097
:104FD000100C00200C0C0020280C0020640C002079
:104FE0002C0C002030270020B42A0020F82A0020B2
:104FF000802C0020AC2C00207C270020002C0020DE
:10500000C02A002040270020FFF7B4FE3B4E3C4C56
:1050100030600C250746FFF7ADFE6F43E05137685F
:10502000FFF7A8FE05FB074736687860FFF7A2FE8A
:1050300005FB0644A060F8BD0D20BDE8F840FFF771
:1050400055BE0220F9E70B20FFF75CFE0A20FFF7B0
:1050500059FE0C20FFF756FEBDE8F840FFF774BB81
:10506000FFF772FBBDE8F840FBF742BD012000E00E
:105070000220BDE8F840FFF759BE0320FFF756FEB7
:1050800000283AD0FFF720FE00EE100A1D48BDEEC2
:10509000C07A80ED007AF8BD0420FFF747FE0028B3
:1050A0002BD0194B174A00204FF47A7118701160F9
:1050B000F8BD0520FFF73AFEF8B10024FFF704FE23
:1050C00001EE100AFDEEC10A104A10EE901AA1502E
:1050D0000434102CF2D1F8BDFFF7F6FD01EE900A72
:1050E000F7EE007AF4EE671AF1EE10FA084B02D1EF
:1050F00001201870F8BD00211970F8BD3427002078
:10510000B80C0020780D00209D2B00209028002056
:10511000A80C002001482C2102F03EB9982F002055
:1051200008B501460A22034802F0DBF9BDE8084051
:10513000FFF7F0BF982F002008B501460A22034868
:1051400002F0A8F9BDE80840FFF7E4BF982F00205F
:1051500008B501460A22034802F095F9BDE8084067
:10516000FFF7D8BF982F002008B501460A22034850
:1051700002F0BEF9BDE80840FFF7CCBF982F002031
:1051800038B50546002404E00020FFF7EDFF0134A8
:10519000E4B2AC42F8D138BD07B508F023FD0246B1
:1051A0000B4605480221009102F05AFA03B05DF85F
:1051B00004EBFFF7AFBF00BF982F0020074B10B5DF
:1051C0001C2404FB00342068FFF7E6FF6068FFF74B
:1051D000E3FFA068BDE81040FFF7DEBF34290020E0
:1051E00006480378012B08D1054B1A68642A01D1BF
:1051F000002119601A68501C1860704704290020AB
:10520000B02C0020844638B50B480C466146154644
:1052100002F0C7F80848094902F0C3F808480368D3
:105220001C4203D10448074902F0BBF80248294652
:10523000BDE8384002F0C5B8982F0020EB2E0208D8
:10524000942D0020F128020813B50A220F214848A6
:1052500002F055F94749464802F0A3F8012442A359
:10526000D3E900234248009402F0FFF94048424944
:1052700002F097F83E48414902F0A3F83C48404903
:1052800002F08FF83A483F4902F09BF838483E490F
:1052900002F087F80A220821354802F030F9344834
:1052A0003A4902F07EF804210A22314802F027F937
:1052B00021463748374A384CFFF7A4FF02213748C8
:1052C000344AFFF79FFF08213548324AFFF79AFF1B
:1052D000042134482F4AFFF795FF10213248334A02
:1052E000FFF790FF20213248304AFFF78BFF402123
:1052F00030482E4AFFF786FF80212F482B4AFFF7C0
:1053000081FF2A4A2D484FF48071FFF77BFF184830
:105310002B4902F046F82B4B94F824102A4A1448E3
:10532000002914BF1146194602F03BF894F82430C6
:1053300043B194F82730254A0C2043430C48D158F8
:1053400002F02FF80A48224902F02BF894F82610B0
:10535000204A074852F821100A2202B0BDE8104046
:1053600002F084B8AFF30080000000A099990940D2
:10537000982F00200A2902081D2902082A2902085C
:1053800035290208452902084C290208602902082B
:105390006929020873290208CC2800207C29020808
:1053A0008A29020894290208A1290208AE290208C4
:1053B000B6290208C4290208D4290208E5290208EE
:1053C000F5290208F628020800290208A42D02087F
:1053D000FB29020890270208F7B58E4C23786B2B27
:1053E000264600F03D812DD8642B00F0958019D819
:1053F000362B00F0A9820ED8232B00F0A08203D810
:10540000212B40F0AE8291E2242B00F06582252B07
:1054100040F0A78264E2622B5FD073D8612B40F02A
:10542000A0824FE0672B00F0B08006D8652B00F01B
:105430009380662B40F0958296E0692B2CD000F289
:10544000D880B7E0722B00F0B18110D86E2B00F03D
:10545000878106D86C2B00F044816D2B40F081824F
:105460005EE1702B00F0948100F299817AE1752B56
:1054700000F0EF8106D8732B00F0AB81742B40F065
:105480007082DDE1792B00F0FD817A2B00F01F8224
:10549000762B40F06682E5E15F4C2068FFF77CFEEA
:1054A0006068FFF779FEA0685C4CFFF775FE206826
:1054B000FFF772FE6068FFF76FFEA068FFF76CFEF3
:1054C00000248CE00020FFF779FE0120FFF776FE34
:1054D000534B1868FFF760FE5DE10320FFF76EFE97
:1054E0000420FFF76BFE0620FFF768FE0720FFF79A
:1054F00065FE4C48006808F075FB0B460221024629
:1055000000912BE10220FFF759FE0520FFF756FE20
:10551000454A46481178A1E10820FFF74FFE44496B
:10552000D1F8F800FFF738FE424B1868FFF71CFE71
:10553000414A1068FFF718FE40480068FFF714FE64
:105540003F490868FFF710FE3E4B1868FFF724FE3E
:105550000920FFF733FE1EE13B480068FFF71CFE01
:105560003A4A3248116879E1394D3A4C2868FFF7D8
:1055700013FE04F1200554F8040FFFF70DFEAC42B2
:10558000F9D10220FFF7FCFDE6E1334C04F12005E0
:1055900054F8040F08F026FB02460B462348062168
:1055A000009102F05DF82C21204801F0F5FEAC429C
:1055B000EED1D1E1294C04F1200554F8040F08F094
:1055C00011FB024606200B460090184802F048F8EE
:1055D0002C21164801F0E0FEAC42EED1BCE12046A1
:1055E0000134FBF7EFFDE4B2FFF7BEFD032CF6D16B
:1055F00020E10020FBF7DAFDFFF7B6FD0120FBF705
:10560000D5FDFFF7B1FD0220FBF7D0FD01460748AD
:1056100068E100BF180C0020BC270020142B0020DC
:10562000300C0020882D0020502C0020982F0020C6
:1056300034290020100C00200C0C0020280C002025
:10564000640C00202C0C002030270020B42A0020FD
:10565000F82A0020802C002078270020FC2B002036
:10566000A34EA44F306808F0BDFA062502460B464B
:10567000A148009501F0F4FFFFF74CFD386808F0F1
:10568000B1FA02460B469C48009501F0E9FFFFF78E
:1056900041FD706808F0A6FA02460B469648009550
:1056A00001F0DEFFFFF736FD786808F09BFA02464E
:1056B0000B469148009501F0D3FFFFF72BFDB06832
:1056C00008F090FA02460B468B48009501F0C8FF9F
:1056D000FFF720FDB86808F085FA009502460B46F2
:1056E0003CE0864C864DFBF7AFFC2668287896FB9D
:1056F000F0F0FFF739FD2B786168002691FBF3F09D
:105700002660FFF731FDA26895F800C0666092FB45
:10571000FCF179480A2201F0F2FEA6602E7020E129
:10572000784D286808F05EFA062602460B46724855
:10573000009601F095FFFFF7EDFC686808F052FA5B
:1057400002460B466C48009601F08AFFFFF7E2FC28
:10575000A86808F047FA009602460B466648EBE058
:10576000032016E0684D00242046FFF7E5FC55F8BD
:10577000080CFFF7D5FC013455F8040CFFF7D0FCFA
:10578000E4B255F80C0BFFF7CBFC102CECD1E3E0A6
:105790000D20FFF7F5FC584801F008FED1E05B4A08
:1057A000554811680A2201F061FECAE0584C206891
:1057B000FFF7F2FC6068FFF7EFFCFFF749FA08F02B
:1057C00011FA02460B464C480221009101F04DFFB0
:1057D000C7E050484E4C0078FFF7AEFC2068FFF75A
:1057E000DBFC6068FFF7D8FCFFF732FAFFF7D4FC68
:1057F000FDF718F8FFF7D0FC474B1878FFF7B4FC1B
:105800000024464AA0580434FFF7AEFC202CF8D1FF
:105810000024434960580434FFF7A6FC102CF8D14B
:105820000420FFF7ADFC0020FFF79EFC3D4B1878ED
:10583000FFF782FC304803B0BDE8F04001F0B6BD90
:105840000024364820580434FFF78EFC202CF8D171
:10585000F0E70020FFF788FC274800210A2201F02A
:105860004EFE6EE00B20FFF7A9FC0A20FFF7A6FC16
:1058700058250C20FFF7A2FC25701F4801F096FD6B
:1058800025706EE0284C94F82400FFF755FC206842
:10589000FFF746FC6068FFF743FC2069FFF740FC18
:1058A000A068FFF73DFCE068FFF752FC6069FFF776
:1058B0004FFC94F82500FFF73FFCE069FFF748FC38
:1058C000206AFFF745FCA06AFFF742FCB2E7FCF74D
:1058D000A9FFFFF761FC03E00320FFF751FCA9E7F4
:1058E000054800210A2203B0BDE8F04001F007BEE0
:1058F000C02A0020B0280020982F00206C2700200C
:10590000C02C002040270020C00C0020942D002037
:10591000EC2A0020042900200D270020082900205F
:10592000DC2C0020A0280020CC280020012200929E
:105930000FA3D3E900230C4801F097FE01E0FFF725
:1059400083FC582121700CE00024084BE0580434FB
:10595000FFF70AFC102CF8D1034801F027FD58206E
:10596000307003B0F0BD00BF982F0020DC2C002069
:10597000000000A09999094010B53B484FF4E1316F
:1059800002F06CFB4620002102F0A0FB4620002123
:1059900002F0F2FBFEF7CEFD4FF48A70FEF760FCDA
:1059A000DFED327A07EE100AB4EE677AF1EE10FA04
:1059B00005D0FEF7D1FC0124FEF7C6FE00E000246E
:1059C000FBF70CFC0420FCF75DF80820FBF78CFFCC
:1059D000FFF7EEF8FBF754FAFBF700FB0028FBD0CB
:1059E000FBF730FB1CB1FBF77FFBFEF7ADFE204C55
:1059F000FBF7EEF8FEF7E8FF4FF07B50E066C4F8E7
:105A000088001C4CFBF74AFE226842F0100121601E
:105A1000FCF7E2FEFCF78EFDFDF7DCF82368164A82
:105A200043F02000206015484FF4E131106002F08F
:105A300097F84FF47A7002F03CFBFAF717FFFAF789
:105A400075FC0F4908604620012102F095FB0D4BC3
:105A50000024342021461C7002F038FB37202146F8
:105A6000BDE8104002F032BB982F0020CDCC4C4056
:105A700034290020942D002000290020682F0020C8
:105A8000D02C0020B82A00202DE9F0432DED048B06
:105A9000372085B0002102F019FB3720012102F0E8
:105AA0006BFB684C684B22681868684F1A60111AC3
:105AB00000EE101ADFED667AB8EE407A654E664D5C
:105AC000C7EE277A0024C7ED007AFBF73DFAFBF713
:105AD000DDFA624A56F8040F6301D118FBF726F885
